{
  "contractName": "King",
  "abi": [
    {
      "constant": true,
      "inputs": [],
      "name": "king",
      "outputs": [
        {
          "name": "",
          "type": "address"
        }
      ],
      "payable": false,
      "stateMutability": "view",
      "type": "function"
    },
    {
      "constant": true,
      "inputs": [],
      "name": "prize",
      "outputs": [
        {
          "name": "",
          "type": "uint256"
        }
      ],
      "payable": false,
      "stateMutability": "view",
      "type": "function"
    },
    {
      "inputs": [],
      "payable": true,
      "stateMutability": "payable",
      "type": "constructor"
    },
    {
      "payable": true,
      "stateMutability": "payable",
      "type": "fallback"
    },
    {
      "constant": false,
      "inputs": [],
      "name": "play",
      "outputs": [],
      "payable": true,
      "stateMutability": "payable",
      "type": "function"
    }
  ],
  "bytecode": "0x6080604052670de0b6b3a7640000341415156100a9576040517f08c379a000000000000000000000000000000000000000000000000000000000815260040180806020018281038252602e8152602001807f436f6e7472616374206d757374206265206465706c6f7965642077697468206181526020017f2031206574686572207072697a6500000000000000000000000000000000000081525060400191505060405180910390fd5b336000806101000a81548173ffffffffffffffffffffffffffffffffffffffff021916908373ffffffffffffffffffffffffffffffffffffffff160217905550670de0b6b3a7640000600181905550610296806101076000396000f3fe608060405260043610610057576000357c0100000000000000000000000000000000000000000000000000000000900463ffffffff16806393e84cd914610061578063cc181ca81461006b578063e3ac5d26146100c2575b61005f6100ed565b005b6100696100ed565b005b34801561007757600080fd5b5061008061023f565b604051808273ffffffffffffffffffffffffffffffffffffffff1673ffffffffffffffffffffffffffffffffffffffff16815260200191505060405180910390f35b3480156100ce57600080fd5b506100d7610264565b6040518082815260200191505060405180910390f35b6001543411151561018c576040517f08c379a000000000000000000000000000000000000000000000000000000000815260040180806020018281038252602b8152602001807f4465706f736974206d7573742062652067726561746572207468616e2063757281526020017f72656e74207072697a652e00000000000000000000000000000000000000000081525060400191505060405180910390fd5b346001819055506000809054906101000a900473ffffffffffffffffffffffffffffffffffffffff1673ffffffffffffffffffffffffffffffffffffffff166108fc6001549081150290604051600060405180830381858888f193505050501580156101fc573d6000803e3d6000fd5b50336000806101000a81548173ffffffffffffffffffffffffffffffffffffffff021916908373ffffffffffffffffffffffffffffffffffffffff160217905550565b6000809054906101000a900473ffffffffffffffffffffffffffffffffffffffff1681565b6001548156fea165627a7a72305820686bf58386807b5668ec998882f6971cdaa12ad89d39105597e01f7bc0dfac870029",
  "source": "pragma solidity ^0.5.0;\n\ncontract King {\n\n  address payable public king;\n  uint256 public prize;\n\n  constructor() public payable {\n    require(msg.value == 1 ether, \"Contract must be deployed with a 1 ether prize\");\n    king = msg.sender;\n    prize = 1 ether;\n  }\n\n  function play() public payable {\n    require(msg.value > prize, \"Deposit must be greater than current prize.\");\n    prize = msg.value;\n    king.transfer(prize);\n    king = msg.sender;\n  }\n\n  // TODO: Consider allowing king to withdraw all balance after 1 month.\n\n  function() external payable {\n    play();\n  }\n}\n",
  "sourcePath": "/home/ajs/king-dapp/contracts/King.sol",
  "compiler": {
    "name": "solc",
    "version": "0.5.0+commit.1d4f565a.Emscripten.clang"
  },
  "schemaVersion": "3.0.8",
  "updatedAt": "2019-05-10T19:23:53.995Z",
  "devdoc": {
    "methods": {}
  },
  "userdoc": {
    "methods": {}
  }
}