{
  "contractName": "King",
  "abi": [
    {
      "constant": true,
      "inputs": [],
      "name": "time",
      "outputs": [
        {
          "name": "",
          "type": "uint256"
        }
      ],
      "payable": false,
      "stateMutability": "view",
      "type": "function"
    },
    {
      "constant": true,
      "inputs": [],
      "name": "king",
      "outputs": [
        {
          "name": "",
          "type": "address"
        }
      ],
      "payable": false,
      "stateMutability": "view",
      "type": "function"
    },
    {
      "constant": true,
      "inputs": [],
      "name": "prize",
      "outputs": [
        {
          "name": "",
          "type": "uint256"
        }
      ],
      "payable": false,
      "stateMutability": "view",
      "type": "function"
    },
    {
      "inputs": [],
      "payable": true,
      "stateMutability": "payable",
      "type": "constructor"
    },
    {
      "payable": true,
      "stateMutability": "payable",
      "type": "fallback"
    },
    {
      "constant": false,
      "inputs": [],
      "name": "play",
      "outputs": [],
      "payable": true,
      "stateMutability": "payable",
      "type": "function"
    },
    {
      "constant": false,
      "inputs": [],
      "name": "kingExtract",
      "outputs": [],
      "payable": true,
      "stateMutability": "payable",
      "type": "function"
    }
  ],
  "bytecode": "0x6080604052670de0b6b3a7640000341415156100a9576040517f08c379a000000000000000000000000000000000000000000000000000000000815260040180806020018281038252602e8152602001807f436f6e7472616374206d757374206265206465706c6f7965642077697468206181526020017f2031206574686572207072697a6500000000000000000000000000000000000081525060400191505060405180910390fd5b336000806101000a81548173ffffffffffffffffffffffffffffffffffffffff021916908373ffffffffffffffffffffffffffffffffffffffff160217905550670de0b6b3a7640000600181905550426002819055506104108061010e6000396000f3fe60806040526004361061006d576000357c0100000000000000000000000000000000000000000000000000000000900463ffffffff16806316ada5471461007757806358295901146100a257806393e84cd9146100ac578063cc181ca8146100b6578063e3ac5d261461010d575b610075610138565b005b34801561008357600080fd5b5061008c610331565b6040518082815260200191505060405180910390f35b6100aa610337565b005b6100b4610138565b005b3480156100c257600080fd5b506100cb6103b9565b604051808273ffffffffffffffffffffffffffffffffffffffff1673ffffffffffffffffffffffffffffffffffffffff16815260200191505060405180910390f35b34801561011957600080fd5b506101226103de565b6040518082815260200191505060405180910390f35b62278d0060025401600254111515156101df576040517f08c379a00000000000000000000000000000000000000000000000000000000081526004018080602001828103825260328152602001807f416c6c6f7720746f20706c6179206f6e6c79206265666f7265206f6e65206d6f81526020017f6e74682073696e6365206372656174696f6e000000000000000000000000000081525060400191505060405180910390fd5b6001543411151561027e576040517f08c379a000000000000000000000000000000000000000000000000000000000815260040180806020018281038252602a8152602001807f4465706f736974206d7573742062652067726561746572207468616e2063757281526020017f72656e74207072697a650000000000000000000000000000000000000000000081525060400191505060405180910390fd5b346001819055506000809054906101000a900473ffffffffffffffffffffffffffffffffffffffff1673ffffffffffffffffffffffffffffffffffffffff166108fc6001549081150290604051600060405180830381858888f193505050501580156102ee573d6000803e3d6000fd5b50336000806101000a81548173ffffffffffffffffffffffffffffffffffffffff021916908373ffffffffffffffffffffffffffffffffffffffff160217905550565b60025481565b62278d0060025401421015151561034d57600080fd5b6000809054906101000a900473ffffffffffffffffffffffffffffffffffffffff1673ffffffffffffffffffffffffffffffffffffffff166108fc6001549081150290604051600060405180830381858888f193505050501580156103b6573d6000803e3d6000fd5b50565b6000809054906101000a900473ffffffffffffffffffffffffffffffffffffffff1681565b6001548156fea165627a7a72305820aebf940e6faa916353a527f376a9c7e9fd7ad20426999843d8d1edca2679e24f0029",
  "source": "pragma solidity ^0.5.0;\n\ncontract King {\n\n  address payable public king;\n  uint256 public prize;\n  uint256 public time;\n\n  constructor() public payable {\n    require(msg.value == 1 ether, \"Contract must be deployed with a 1 ether prize\");\n    king = msg.sender;\n    prize = 1 ether;\n    time = now;\n  }\n\n  function play() public payable {\n    require(time <= time + 2592000, \"Allow to play only before one month since creation\");\n    require(msg.value > prize, \"Deposit must be greater than current prize\");\n    prize = msg.value;\n    king.transfer(prize);\n    king = msg.sender;\n  }\n\n  function() external payable {\n    play();\n  }\n\n  // TODO: Consider allowing king to withdraw all balance after 1 month.\n\n  function kingExtract() public payable {\n    // Check that 30days has passed.\n    require(now >= time + 2592000);\n    /* require(msg.sender = king); */\n    king.transfer(prize);\n  }\n\n}\n",
  "sourcePath": "/home/juanchi/Desktop/EntrenamientoZ/React-Dapp/king-dapp/contracts/King.sol",
  "compiler": {
    "name": "solc",
    "version": "0.5.0+commit.1d4f565a.Emscripten.clang"
  },
  "schemaVersion": "3.0.9",
  "updatedAt": "2019-05-16T02:51:28.775Z",
  "devdoc": {
    "methods": {}
  },
  "userdoc": {
    "methods": {}
  }
}